{
  "contractName": "AOSRing",
  "abi": [
    {
      "constant": true,
      "inputs": [
        {
          "name": "pubkeys",
          "type": "uint256[]"
        },
        {
          "name": "tees",
          "type": "uint256[]"
        },
        {
          "name": "seed",
          "type": "uint256"
        },
        {
          "name": "message",
          "type": "uint256"
        }
      ],
      "name": "Verify",
      "outputs": [
        {
          "name": "",
          "type": "bool"
        }
      ],
      "payable": false,
      "stateMutability": "view",
      "type": "function",
      "signature": "0x3b40da01"
    }
  ],
  "bytecode": "0x6105a5610030600b82828239805160001a6073146000811461002057610022565bfe5b5030600052607381538281f3007300000000000000000000000000000000000000003014608060405260043610610058576000357c0100000000000000000000000000000000000000000000000000000000900463ffffffff1680633b40da011461005d575b600080fd5b61010b60048036038101908080359060200190820180359060200190808060200260200160405190810160405280939291908181526020018383602002808284378201915050505050509192919290803590602001908201803590602001908080602002602001604051908101604052809392919081815260200183836020028082843782019150505050505091929192908035906020019092919080359060200190929190505050610125565b604051808215151515815260200191505060405180910390f35b60008060008060008060028a5181151561013b57fe5b0614151561014857600080fd5b6000895111151561015857600080fd5b8693506002895181151561016857fe5b049250600091505b828210156101f5576002820290506101e660408051908101604052808b8481518110151561019a57fe5b9060200190602002015181526020018b600185018151811015156101ba57fe5b90602001906020020151815250878a858151811015156101d657fe5b9060200190602002015187610206565b93508180600101925050610170565b868414945050505050949350505050565b6000610210610519565b610218610519565b610220610519565b61024361022b610378565b61023361039c565b8881151561023d57fe5b066103c4565b9250604080519081016040528089600060028110151561025f57fe5b6020020151815260200189600160028110151561027857fe5b602002015181525091506102958361029084886103c4565b61045e565b90508760006002811015156102a657fe5b60200201518860016002811015156102ba57fe5b6020020151826000015183602001518a60405160200180868152602001858152602001848152602001838152602001828152602001955050505050506040516020818303038152906040526040518082805190602001908083835b60208310151561033a5780518252602082019150602081019050602083039250610315565b6001836020036101000a0380198251168184511680821785525050505050509050019150506040518091039020600190049350505050949350505050565b610380610519565b6040805190810160405280600181526020016002815250905090565b60007f30644e72e131a029b85045b68181585d2833e84879b9709143e1f593f0000001905090565b6103cc610519565b6103d4610533565b600084600001518260006003811015156103ea57fe5b602002018181525050846020015182600160038110151561040757fe5b6020020181815250508382600260038110151561042057fe5b60200201818152505060608360808460076107d05a03fa9050806000811461044757610449565bfe5b5080151561045657600080fd5b505092915050565b610466610519565b61046e610556565b6000846000015182600060048110151561048457fe5b60200201818152505084602001518260016004811015156104a157fe5b60200201818152505083600001518260026004811015156104be57fe5b60200201818152505083602001518260036004811015156104db57fe5b60200201818152505060608360c08460066107d05a03fa9050806000811461050257610504565bfe5b5080151561051157600080fd5b505092915050565b604080519081016040528060008152602001600081525090565b606060405190810160405280600390602082028038833980820191505090505090565b6080604051908101604052806004906020820280388339808201915050905050905600a165627a7a72305820ff1d6621068c12c947450c795e420a1f711a3c2ecb911911fcf730054057b0620029",
  "source": "pragma solidity ^0.4.25;\n\nimport \"./Curve.sol\";\nimport \"./Schnorr.sol\";\n\n// https://www.iacr.org/cryptodb/archive/2002/ASIACRYPT/50/50.pdf\nlibrary AOSRing\n{\n\tfunction Verify( uint256[] pubkeys, uint256[] tees, uint256 seed, uint256 message )\n\t\tpublic constant\n\t\treturns (bool)\n\t{\n\t\trequire( pubkeys.length % 2 == 0 );\n\t\trequire( pubkeys.length > 0 );\n\t\t// TODO: verify seed\n\t\t// TODO: fit message to Curve.N()\n\t\tuint256 c = seed;\n\t\tuint256 nkeys = pubkeys.length / 2;\n\t\tfor( uint256 i = 0; i < nkeys; i++ ) {\n\t\t\tuint256 j = i * 2;\n\t\t\tc = Schnorr.CalcProof([pubkeys[j], pubkeys[j+1]], message, tees[i], c);\n\t\t}\n\t\treturn c == seed;\n\t}\n}",
  "sourcePath": "/home/cryptoresearch/Pictures/Final_sign_and_verify_aos/contracts/AOSRing.sol",
  "compiler": {
    "name": "solc",
    "version": "0.4.25+commit.59dbf8f1.Emscripten.clang"
  },
  "schemaVersion": "3.0.0-beta.2",
  "updatedAt": "2019-03-21T23:48:03.675Z",
  "devdoc": {
    "methods": {}
  },
  "userdoc": {
    "methods": {}
  }
}