{
  "contractName": "Borromean",
  "abi": [
    {
      "constant": true,
      "inputs": [
        {
          "name": "rings",
          "type": "uint256[2][][]"
        },
        {
          "name": "tees",
          "type": "uint256[][]"
        },
        {
          "name": "e0",
          "type": "uint256"
        },
        {
          "name": "message",
          "type": "uint256"
        }
      ],
      "name": "VerifyProof",
      "outputs": [
        {
          "name": "",
          "type": "bool"
        }
      ],
      "payable": false,
      "stateMutability": "view",
      "type": "function",
      "signature": "0xf57a972b"
    }
  ],
  "bytecode": "0x610b93610030600b82828239805160001a6073146000811461002057610022565bfe5b5030600052607381538281f3007300000000000000000000000000000000000000003014608060405260043610610058576000357c0100000000000000000000000000000000000000000000000000000000900463ffffffff168063f57a972b1461005d575b600080fd5b61007760048036036100729190810190610997565b61008d565b6040516100849190610a39565b60405180910390f35b6000610097610673565b6000606060008060008a519450846040519080825280602002602001820160405280156100de57816020015b6100cb610695565b8152602001906001900390816100c35790505b509350600092505b8483101561027f57889150600090505b898381518110151561010457fe5b90602001906020020151518110156102565761017d8b8481518110151561012757fe5b906020019060200201518281518110151561013e57fe5b906020019060200201518b8581518110151561015657fe5b906020019060200201518381518110151561016d57fe5b9060200190602002015184610381565b9550610187610437565b86896040516020018083600260200280838360005b838110156101b757808201518184015260208101905061019c565b50505050905001828152602001925050506040516020818303038152906040526040518082805190602001908083835b60208310151561020c57805182526020820191506020810190506020830392506101e7565b6001836020036101000a03801982511681845116808217855250505050505090500191505060405180910390206001900481151561024657fe5b06915080806001019150506100f6565b85848481518110151561026557fe5b9060200190602002018190525082806001019350506100e6565b610287610437565b8489604051602001808380516000925b818410156102e257828490602001906020020151600260200280838360005b838110156102d15780820151818401526020810190506102b6565b505050509050019260010192610297565b92505050828152602001925050506040516020818303038152906040526040518082805190602001908083835b602083101515610334578051825260208201915060208101905060208303925061030f565b6001836020036101000a03801982511681845116808217855250505050505090500191505060405180910390206001900481151561036e57fe5b0689149650505050505050949350505050565b610389610673565b6103916106b7565b6103996106b7565b6103a16106b7565b6103b26103ac61045f565b87610483565b92506103f860408051908101604052808960006002811015156103d157fe5b602002015181526020018960016002811015156103ea57fe5b602002015181525086610483565b915061040c836104078461051d565b6105b8565b9050604080519081016040528082600001518152602001826020015181525093505050509392505050565b60007f30644e72e131a029b85045b68181585d2833e84879b9709143e1f593f0000001905090565b6104676106b7565b6040805190810160405280600181526020016002815250905090565b61048b6106b7565b6104936106d1565b600084600001518260006003811015156104a957fe5b60200201818152505084602001518260016003811015156104c657fe5b602002018181525050838260026003811015156104df57fe5b60200201818152505060608360808460076107d05a03fa9050806000811461050657610508565bfe5b5080151561051557600080fd5b505092915050565b6105256106b7565b60007f30644e72e131a029b85045b68181585d97816a916871ca8d3c208c16d87cfd47905060008360000151148015610562575060008360200151145b1561058557604080519081016040528060008152602001600081525091506105b2565b6040805190810160405280846000015181526020018285602001518115156105a957fe5b06830381525091505b50919050565b6105c06106b7565b6105c86106f4565b600084600001518260006004811015156105de57fe5b60200201818152505084602001518260016004811015156105fb57fe5b602002018181525050836000015182600260048110151561061857fe5b602002018181525050836020015182600360048110151561063557fe5b60200201818152505060608360c08460066107d05a03fa9050806000811461065c5761065e565bfe5b5080151561066b57600080fd5b505092915050565b6040805190810160405280600290602082028038833980820191505090505090565b6040805190810160405280600290602082028038833980820191505090505090565b604080519081016040528060008152602001600081525090565b606060405190810160405280600390602082028038833980820191505090505090565b608060405190810160405280600490602082028038833980820191505090505090565b600082601f830112151561072a57600080fd5b813561073d61073882610a81565b610a54565b9150818183526020840193506020810190508360005b838110156107835781358601610769888261078d565b845260208401935060208301925050600181019050610753565b5050505092915050565b600082601f83011215156107a057600080fd5b81356107b36107ae82610aa9565b610a54565b915081818352602084019350602081019050838560408402820111156107d857600080fd5b60005b8381101561080857816107ee8882610888565b8452602084019350604083019250506001810190506107db565b5050505092915050565b600082601f830112151561082557600080fd5b813561083861083382610ad1565b610a54565b9150818183526020840193506020810190508360005b8381101561087e578135860161086488826108fe565b84526020840193506020830192505060018101905061084e565b5050505092915050565b600082601f830112151561089b57600080fd5b60026108ae6108a982610af9565b610a54565b915081838560208402820111156108c457600080fd5b60005b838110156108f457816108da8882610983565b8452602084019350602083019250506001810190506108c7565b5050505092915050565b600082601f830112151561091157600080fd5b813561092461091f82610b1b565b610a54565b9150818183526020840193506020810190508385602084028201111561094957600080fd5b60005b83811015610979578161095f8882610983565b84526020840193506020830192505060018101905061094c565b5050505092915050565b600061098f8235610b4f565b905092915050565b600080600080608085870312156109ad57600080fd5b600085013567ffffffffffffffff8111156109c757600080fd5b6109d387828801610717565b945050602085013567ffffffffffffffff8111156109f057600080fd5b6109fc87828801610812565b9350506040610a0d87828801610983565b9250506060610a1e87828801610983565b91505092959194509250565b610a3381610b43565b82525050565b6000602082019050610a4e6000830184610a2a565b92915050565b6000604051905081810181811067ffffffffffffffff82111715610a7757600080fd5b8060405250919050565b600067ffffffffffffffff821115610a9857600080fd5b602082029050602081019050919050565b600067ffffffffffffffff821115610ac057600080fd5b602082029050602081019050919050565b600067ffffffffffffffff821115610ae857600080fd5b602082029050602081019050919050565b600067ffffffffffffffff821115610b1057600080fd5b602082029050919050565b600067ffffffffffffffff821115610b3257600080fd5b602082029050602081019050919050565b60008115159050919050565b60008190509190505600a265627a7a723058205fbb75d5342a461184ee73902f0fb1ee66d74f9b6f081029429b45a9007276396c6578706572696d656e74616cf50037",
  "source": "pragma solidity ^0.4.24;\npragma experimental ABIEncoderV2;\n\nimport \"./Curve.sol\";\n\nlibrary Borromean{\n\n  function Borr(uint256[2] pubkey, uint256 s, uint256 e)\n  internal view \n  returns(uint256[2]){\n    Curve.G1Point memory sG = Curve.g1mul(Curve.P1(), s);\n    Curve.G1Point memory eP = Curve.g1mul(Curve.G1Point(pubkey[0], pubkey[1]), e);\n    Curve.G1Point memory R = Curve.g1add(sG, Curve.g1neg(eP));\n    return [R.X, R.Y];\n  }\n\n  function VerifyProof(uint256[2][][] rings, uint256[][] tees, uint256 e0, uint256 message)\n  public view\n  returns(bool)\n  {\n    uint256[2] memory R;\n    uint256 n = rings.length;\n    uint256[2][] memory R_0 = new uint[2][](n);\n    for (uint256 i = 0; i < n; i ++){\n      uint256 e = e0;\n      for (uint256 j = 0; j < tees[i].length; j ++){\n        R = Borr(rings[i][j], tees[i][j], e);\n        e = uint256(keccak256(abi.encodePacked(R, message))) % Curve.N();\n      }\n      R_0[i] = R;\n    }\n    return e0 == (uint256(keccak256(abi.encodePacked(R_0, message))) % Curve.N());\n  }\n}",
  "sourcePath": "/home/cryptoresearch/Pictures/Final_sign_and_verify_aos/contracts/Borromean.sol",
  "compiler": {
    "name": "solc",
    "version": "0.4.25+commit.59dbf8f1.Emscripten.clang"
  },
  "schemaVersion": "3.0.0-beta.2",
  "updatedAt": "2019-03-21T23:48:03.968Z",
  "devdoc": {
    "methods": {}
  },
  "userdoc": {
    "methods": {}
  }
}