{
  "contractName": "UAOSRing",
  "abi": [
    {
      "constant": true,
      "inputs": [
        {
          "name": "pubkeys",
          "type": "uint256[8]"
        },
        {
          "name": "tag",
          "type": "uint256[2]"
        },
        {
          "name": "tees",
          "type": "uint256[4]"
        },
        {
          "name": "seed",
          "type": "uint256"
        },
        {
          "name": "message",
          "type": "uint256"
        }
      ],
      "name": "Verify",
      "outputs": [
        {
          "name": "",
          "type": "bool"
        }
      ],
      "payable": false,
      "stateMutability": "view",
      "type": "function"
    }
  ],
  "bytecode": "0x6108ad610030600b82828239805160001a6073146000811461002057610022565bfe5b5030600052607381538281f3007300000000000000000000000000000000000000003014608060405260043610610058576000357c0100000000000000000000000000000000000000000000000000000000900463ffffffff1680638a4eae4a1461005d575b600080fd5b61011360048036038101908080610100019060088060200260405190810160405280929190826008602002808284378201915050505050919291929080604001906002806020026040519081016040528092919082600260200280828437820191505050505091929192908060800190600480602002604051908101604052809291908260046020028082843782019150505050509192919290803590602001909291908035906020019092919050505061012d565b604051808215151515815260200191505060405180910390f35b60006101376107db565b60006101416107db565b6000806000806002600881151561015457fe5b0614151561016157600080fd5b6000600811151561017157600080fd5b61017a886102dc565b9550856000015186602001518c600060028110151561019557fe5b60200201518d60016002811015156101a957fe5b602002015160405180858152602001848152602001838152602001828152602001945050505050604051809103902060019004945060408051908101604052808c60006002811015156101f857fe5b602002015181526020018c600160028110151561021157fe5b60200201518152509350889250600091505b6002600881151561023057fe5b048210156102c8576002820290508461029960408051908101604052808f8560088110151561025b57fe5b602002015181526020018f6001860160088110151561027657fe5b602002015181525088878e8760048110151561028e57fe5b6020020151886103c5565b604051808381526020018281526020019250505060405180910390206001900492508180600101925050610223565b888314965050505050505095945050505050565b6102e46107db565b6000806000809250600091507f30644e72e131a029b85045b68181585d2833e84879b9709143e1f593f00000018581151561031b57fe5b0690505b6001156103bc5761032f81610481565b80935081945050507f30644e72e131a029b85045b68181585d97816a916871ca8d3c208c16d87cfd4780151561036157fe5b8283098314156103875760408051908101604052808281526020018381525093506103bd565b7f30644e72e131a029b85045b68181585d97816a916871ca8d3c208c16d87cfd478015156103b157fe5b60018208905061031f565b5b505050919050565b60006103cf6107db565b6103d76107db565b6103fa6103eb6103e5610569565b8761058d565b6103f58a8761058d565b610627565b9150610418610409888761058d565b610413888761058d565b610627565b90508560000151866020015183600001518460200151846000015185602001516040518087815260200186815260200185815260200184815260200183815260200182815260200196505050505050506040518091039020600190049250505095945050505050565b6000806000807f30644e72e131a029b85045b68181585d97816a916871ca8d3c208c16d87cfd478015156104b157fe5b60037f30644e72e131a029b85045b68181585d97816a916871ca8d3c208c16d87cfd478015156104dd57fe5b877f30644e72e131a029b85045b68181585d97816a916871ca8d3c208c16d87cfd4780151561050857fe5b898a090908915061055a827f0c19139cb84c680a6e14116da060561765e05aa45a1c72a34f082305b61f3f527f30644e72e131a029b85045b68181585d97816a916871ca8d3c208c16d87cfd476106e2565b90508181935093505050915091565b6105716107db565b6040805190810160405280600181526020016002815250905090565b6105956107db565b61059d6107f5565b600084600001518260006003811015156105b357fe5b60200201818152505084602001518260016003811015156105d057fe5b602002018181525050838260026003811015156105e957fe5b60200201818152505060608360808460076107d05a03fa9050806000811461061057610612565bfe5b5080151561061f57600080fd5b505092915050565b61062f6107db565b610637610818565b6000846000015182600060048110151561064d57fe5b602002018181525050846020015182600160048110151561066a57fe5b602002018181525050836000015182600260048110151561068757fe5b60200201818152505083602001518260036004811015156106a457fe5b60200201818152505060608360c08460066107d05a03fa905080600081146106cb576106cd565bfe5b508015156106da57600080fd5b505092915050565b6000806106ed61083b565b6106f561085e565b602081600060068110151561070657fe5b602002018181525050602081600160068110151561072057fe5b602002018181525050602081600260068110151561073a57fe5b6020020181815250508681600360068110151561075357fe5b6020020181815250508581600460068110151561076c57fe5b6020020181815250508481600560068110151561078557fe5b60200201818152505060208260c08360056107d05a03fa925082600081146107ac576107ae565bfe5b508215156107bb57600080fd5b8160006001811015156107ca57fe5b602002015193505050509392505050565b604080519081016040528060008152602001600081525090565b606060405190810160405280600390602082028038833980820191505090505090565b608060405190810160405280600490602082028038833980820191505090505090565b602060405190810160405280600190602082028038833980820191505090505090565b60c0604051908101604052806006906020820280388339808201915050905050905600a165627a7a72305820769e7c2d81960fa4fc6cb949c3178c40cac97ca4eb9d3b03044909b6b4a70a3f0029",
  "source": "pragma solidity ^0.4.14;\n\nimport \"./Curve.sol\";\n\n// https://eprint.iacr.org/2004/027.pdf\nlibrary UAOSRing\n{\n\tusing Curve for Curve.G1Point;\n\tfunction RingLink( Curve.G1Point Y, Curve.G1Point M, Curve.G1Point tagpoint, uint256 s, uint256 c )\n\t\tinternal constant\n\t\treturns (uint256)\n\t{\n\t\t\n\t\tvar a = Curve.g1add(Curve.g1mul(Curve.P1(), s), Curve.g1mul(Y, c));  //Mention the actual type of the variable-Guru\n\t\tvar b = Curve.g1add(Curve.g1mul(M, s), Curve.g1mul(tagpoint, c));\t //Mention the actual type of the variable-Guru\n\n\t\treturn uint256(keccak256(\n\t\t\ttagpoint.X, tagpoint.Y,\n\t\t\ta.X, a.Y,\n\t\t\tb.X, b.Y\n\t\t));\n\t}\n\n\tfunction Verify( uint256[8] pubkeys, uint256[2] tag, uint256[4] tees, uint256 seed, uint256 message )\n\t\tpublic constant\n\t\treturns (bool)\n\t{\n\t\trequire( pubkeys.length % 2 == 0 );\n\t\trequire( pubkeys.length > 0 );\n\n\t\tvar M = Curve.HashToPoint(message);       //Mention the actual type of the variable-Guru\n\t\tvar h = uint256(keccak256(M.X, M.Y, tag[0], tag[1])); //Mention the actual type of the variable-Guru\n\t\tvar tagpoint = Curve.G1Point(tag[0], tag[1]);  //Mention the actual type of the variable-Guru\n\n\t\tuint256 c = seed;\n\t\tfor( uint256 i = 0; i < (pubkeys.length / 2); i++ )\n\t\t{\n\t\t\tuint256 j = i * 2;\n\t\t\tc = uint256(keccak256(\n\t\t\t\t\th,\n\t\t\t\t\tRingLink(\n\t\t\t\t\t\tCurve.G1Point(pubkeys[j], pubkeys[j+1]),\n\t\t\t\t\t\tM,\n\t\t\t\t\t\ttagpoint,\n\t\t\t\t\t\ttees[i],\n\t\t\t\t\t\tc\n\t\t\t\t\t)));\n\t\t}\n\t\treturn c == seed;\n\t}\n}",
  "sourcePath": "/home/cryptoresearch/Pictures/Final_sign_and_verify_aos/contracts/UAOSRing.sol",
  "compiler": {
    "name": "solc",
    "version": "0.4.25+commit.59dbf8f1.Emscripten.clang"
  },
  "schemaVersion": "3.0.0-beta.2",
  "updatedAt": "2019-02-27T11:40:58.317Z",
  "devdoc": {
    "methods": {}
  },
  "userdoc": {
    "methods": {}
  }
}